:100000000C947F000C94A7000C94A7000C94460C51
:100010000C94460C0C94460C0C94A7000C94F90715
:100020000C94A7000C94A7000C94A7000C94D20980
:100030000C94A7000C94A7000C94A7000C94A700A4
:100040000C94D5130C94A7000C94EE160C94201766
:100050000C94A7000C94A7000C94A7000C94A70084
:100060000C94E00F0C94A700084AD73B3BCE016EDE
:1000700084BCBFFDC12F3D6C74319ABD56833DDAFF
:100080003D00C77F11BED9E4BB4C3E916BAAAABE0E
:10009000000000803F000000000800020100000393
:1000A0000407000000000000000001020408102006
:1000B00040800102040810200102040810200404FA
:1000C0000404040404040202020202020303030300
:1000D00003030000000023002600290000000000A8
:1000E000250028002B0000000000240027002A0023
:1000F0003902C707F60EB5135017CB07C7131124E3
:100100001FBECFEFD8E0DEBFCDBF12E0A0E0B1E070
:10011000ECEFFBE302C005900D92A434B107D9F7D0
:1001200026E0A4E4B2E001C01D92A237B207E1F7D5
:1001300010E0CAEFD0E004C02297FE010E949F1B8E
:10014000C03FD107C9F70E9494170C94F11D0C947D
:100150000000CF92DF92EF92FF920F931F93E82F50
:10016000F92F05C0015011092109310961F1908170
:1001700096239417B9F305C00150110921093109DB
:1001800011F1908196239413F7CFC12CD12CE12C3F
:10019000F12C0AC08FEFC81AD80AE80AF80A0C1521
:1001A0001D052E053F0579F080818623841791F384
:1001B0006C2D7D2D8E2D9F2D1F910F91FF90EF9017
:1001C000DF90CF90089560E070E080E090E01F91B4
:1001D0000F91FF90EF90DF90CF90089584B58368E2
:1001E00084BD17BC61E086E00C94E51484B583629D
:1001F00084BD18BC61E085E00C94E514CF93DF93D7
:1002000060E08CE00E941E1560E088E00E941E15F0
:10021000C7E0D0E060E084E00E941E1580914502B6
:1002200090E00C2E02C0959587950A94E2F780FF26
:1002300002C061E001C060E088E00E941E1561E03C
:1002400084E00E941E15219728F761E08CE0DF9181
:10025000CF910C941E15CF93DF93EC0161E08CE0FD
:100260000E94E51461E087E00E94E51461E088E007
:100270000E94E51461E084E00E94E51410924502BA
:10028000CE010E94FE0060E087E0DF91CF910C94E8
:100290001E15E0EBF0E09081936890838770809367
:1002A000B1001092B30061E08BE00C94E514E0EB38
:1002B000F0E090819362908387708093B1001092F8
:1002C000B40061E083E00C94E5141F93CF93DF93B7
:1002D0001F92CDB7DEB7FC01142F6083418384E405
:1002E00092E069830E942B016981623039F198F4B0
:1002F000613009F042C080914502837F80934502BE
:1003000084E492E00E94FE00812F0F90DF91CF9154
:100310001F910C944901633009F1643071F58091AB
:1003200045028E7B8093450284E492E00E94FE00A9
:100330000F90DF91CF911F910C94F60080914502B0
:100340008D7E8093450284E492E00E94FE00812F1E
:100350000F90DF91CF911F910C945701809145022E
:100360008F758093450284E492E00E94FE000F9016
:10037000DF91CF911F910C94EE000F90DF91CF9100
:100380001F910895FC018081823091F018F4813032
:1003900031F00895833031F0843039F0089573E0FE
:1003A000E2E008C077E0E5E005C076E0E0E002C00A
:1003B00074E0E1E06230D1F0643069F1613009F05D
:1003C00040C041E050E09A01072E01C0220F0A947C
:1003D000EAF720950E2E01C0440F0A94EAF78091A7
:1003E0004502842B28232093450227C021E030E0DA
:1003F000A9010E2E01C0440F0A94EAF7409580919E
:1004000045024823072E01C0220F0A94EAF7422B27
:100410004093450212C081E090E0AC0101C0440F5E
:10042000EA95EAF701C0880F7A95EAF7842B809560
:100430009091450298239093450284E492E00C94B5
:10044000FE000895FC018081823061F018F4813053
:1004500031F00895833049F0843049F00895609375
:10046000B30008956093B400089567BD089568BD12
:100470000895109244020895CF93DF93EC0160E059
:100480000E94E2088CE291E099838883DF91CF910A
:100490000895CF93DF93EC0160E00E94AE088EE1F7
:1004A0008B871C82DF91CF910895AF92BF92CF923C
:1004B000DF92EF92FF920F931F93CF93DF93CDB70D
:1004C000DEB76A970FB6F894DEBF0FBECDBF8C01C2
:1004D000CE0101967C01C12CD12C5C01C6010E9489
:1004E000A41DF70181937F01FFEFCF1ADF0A8AE194
:1004F000C816D10499F72D813E814F8158856981B5
:100500007A818B819C810E947D1829853A854B8553
:100510005C850E947D182D853E854F8558890E94F7
:100520007D1829893A894B895C890E947D182D891B
:100530003E894F89588D0E947D186B017C01698D21
:1005400070E080E090E00E94E2199B01AC01C701DD
:10055000B6010E947D1820E030E04AE253E40E9498
:100560007D180E94B4198A8D68130CC08AE1F501C8
:10057000D8011D9601900D928A95E1F781E0F8016E
:10058000848302C0F80114826A960FB6F894DEBF25
:100590000FBECDBFDF91CF911F910F91FF90EF90D4
:1005A000DF90CF90BF90AF900895CF92DF92EF92FF
:1005B000FF920F931F93CF93DF938C01EB012C815C
:1005C0003D814E815F81688179818A819B810E9412
:1005D0007D18288539854A855B850E947D182C8584
:1005E0003D854E855F850E947D18288939894A8915
:1005F0005B890E947D182C893D894E895F890E9404
:100600007D186B017C01688D70E080E090E00E94B5
:10061000E2199B01AC01C701B6010E947D1820E0E0
:1006200030E04AE253E40E947D180E94B419698FB9
:10063000E12CF12C6991C7010E94AC1D8FEFE81AE3
:10064000F80AEAE1EE16F104A9F781E0F8018483E3
:10065000DF91CF911F910F91FF90EF90DF90CF909E
:100660000895EF92FF921F93CF93DF931F92CDB720
:10067000DEB7162F7A01FC0163858AE394E02983B3
:100680000E94780E612F8AE394E00E942F0E298148
:10069000813091F4422F50E0B7018AE394E00E9448
:1006A000020E61E08AE394E00F90DF91CF911F91F9
:1006B000FF90EF900C94820E8FEF0F90DF91CF910F
:1006C0001F91FF90EF900895CF93DF931F92CDB7C6
:1006D000DEB7498321E0AE014F5F5F4F0E943103D7
:1006E0000F90DF91CF910895EF92FF920F931F9398
:1006F000CF93DF93EC01F62E8A01E22E6B858AE31D
:1007000094E00E94780E6F2D8AE394E00E942F0EF1
:10071000813001F560E08AE394E00E94820E81114D
:100720002EC081E090E00E94761421E04E2D6B8572
:100730008AE394E00E94E60EE80100E010E0F12C6C
:100740008AE394E00E94D70D892B31F00E151F0526
:1007500074F002C08FEF13C081E090E00E94761425
:1007600081E00E151F0509F480E0819508C00F5F38
:100770001F4F8AE394E00E94DF0D8993E1CFDF9160
:10078000CF911F910F91FF90EF900895CF93DF933A
:10079000EC01AC014B5F5F4F23E06AE00E94740301
:1007A00081110AC08D81883439F48E81843321F41B
:1007B00081E09F81933309F080E0DF91CF9108952C
:1007C000CF92DF92EF92FF920F931F93CF93DF931D
:1007D000EC016B018A0179010E942B04AE014B5F91
:1007E0005F4F26E063E0CE010E947403882321F06E
:1007F000992787FD909526C08C85813031F441E0A2
:1008000062E070E0CE010E9464038D8190E0982F39
:1008100088272E81822BF60191838083898590E041
:10082000982F88272A85822BF801918380838F81D6
:1008300090E0982F88272885822BF7019183808369
:1008400080E090E0DF91CF911F910F91FF90EF90AA
:10085000DF90CF9008952F923F924F925F926F92C8
:100860007F928F929F92AF92BF92CF92DF92EF9240
:10087000FF920F931F93CF93DF93CDB7DEB76C97A3
:100880000FB6F894DEBF0FBECDBF8C0162E00E94B0
:10089000C1088111B2C16AE070E080E090E00E947E
:1008A0004E1462E0C8010E94C1088111A6C1C801AE
:1008B0000E94C603882309F4A0C10E941F146B0183
:1008C0007C01712CBB24B39462E0C8010E94C10872
:1008D000811115C00E941F146C197D098E099F0992
:1008E000693C71058105910578F30E941F146B0125
:1008F0007C017B24672DC8010E94D208E5CF64E605
:1009000070E080E090E00E944E140E941F144B01A2
:100910005C012FEF3FE7388B2F8740E050E85E8780
:100920004D878FEF9FE79C878B87E0E0F0E8FA87A1
:10093000E98738872F83212C50E8352E662463946D
:100940000E941F146C197D098E099F09693C71056D
:100950008105910548F00E941F146B017C017624EB
:10096000672DC8010E94D2080E941F1468197909D6
:100970008A099B096B30710581059105E0F19E01A3
:100980002F5F3F4FAE014D5F5F4FBE016B5F7F4FEB
:10099000C8010E94E0038D819E814F815885841794
:1009A00095072CF02816390624F41C0102C09887FC
:1009B0008F838B819C81EB85FC858E179F0744F08C
:1009C00029853A85281739072CF49A87898702C028
:1009D0009C878B8789819A814F85588984179507D1
:1009E00044F0ED85FE85E817F9072CF49E878D8786
:1009F00002C0988B8F8762E0C8010E94C1088111F4
:100A00009FCF60E0C8010E94D208B101882777FD1E
:100A10008095982F0E94E2196B017C012F81388507
:100A2000B901882777FD8095982F0E94E219698B7C
:100A30007A8B8B8B9C8B9B01AC01C701B6010E940A
:100A40007D18905820E030E040E05FE30E94C21A39
:100A5000F801658776878787908B29853A85B90164
:100A6000882777FD8095982F0E94E2192B013C0181
:100A70004B855C85BA01882777FD8095982F0E9469
:100A8000E2196D8B7E8B8F8B988F9B01AC01C3011C
:100A9000B2010E947D18905820E030E040E05FE312
:100AA0000E94C21AF801618B728B838B948B2D8507
:100AB0003E85B901882777FD8095982F0E94E2191D
:100AC0004B015C014F855889BA01882777FD8095D5
:100AD000982F0E94E219698F7A8F8B8F9C8F9B01D0
:100AE000AC01C501B4010E947D18905820E030E0AF
:100AF00040E05FE30E94C21AF801658B768B878B1A
:100B0000908F80E090E0A0E8BFE3818F928FA38F69
:100B1000B48F29893A894B895C89C701B6010E9443
:100B20007C186B017C012D893E894F89588DC3014A
:100B3000B2010E947C18A70196010E944719F80192
:100B4000658F768F878F90A3298D3A8D4B8D5C8D25
:100B5000C501B4010E947C18A70196010E944719A3
:100B6000F80161A372A383A394A32F813885221A6D
:100B7000330A37FE03C031942194310889859A8560
:100B80004B855C85841B950B97FF03C091958195E0
:100B900091092D853E85EF85F8892E1B3F0B37FF88
:100BA00003C0319521953109821593052CF022154A
:100BB000330514F081E009C0281639062CF02817F7
:100BC000390714F082E001C083E0F80185A3B80181
:100BD000635F7F4FC8010E94D50261E0C8010E9497
:100BE000D20862E0C8010E94C1088823D1F364E6FC
:100BF00070E080E090E00E944E146C960FB6F8947E
:100C0000DEBF0FBECDBFDF91CF911F910F91FF903F
:100C1000EF90DF90CF90BF90AF909F908F907F909C
:100C20006F905F904F903F902F900895CF93DF93F8
:100C3000EC018AE394E00E946E0E61E0CE010E9416
:100C4000D20840E760E070E0CE010E94640340E219
:100C500061E070E0CE010E94640381E08C8741E096
:100C600062E070E0CE010E946403CE010E94550252
:100C7000CE01DF91CF910C942B04609347024093F7
:100C80004602FC01608341830C9416062F923F922A
:100C90004F925F926F927F928F929F92AF92BF928C
:100CA000CF92DF92EF92FF920F931F93CF93DF9338
:100CB000CDB7DEB762970FB6F894DEBF0FBECDBFDB
:100CC0008C010E942B049E012F5F3F4FAE014D5FB0
:100CD0005F4FBE016B5F7F4FC8010E94E003882316
:100CE00049F0682F772767FD7095872F972F0E940F
:100CF000E219C5C0F80184812D803E802B813C81A2
:100D000038872F83882309F478C045845684678404
:100D10007088818C928CA38CB48CB901882777FD64
:100D20008095982F0E94E219F80121893289438920
:100D300054890E947D18F801258D368D478D50A16C
:100D40000E94C21A0E94AF196F83788789879A8799
:100D500069817A81882777FD8095982F0E94E21912
:100D6000F801258936894789508D0E947D18F80140
:100D700021A132A143A154A10E94C21A0E94AF191D
:100D80006B877C878D879E87F80115A1113041F410
:100D90002B853C85B901882777FD8095982F32C037
:100DA000B101882777FD8095982F0E94E219A30151
:100DB00092010E947D18A50194010E94C21A0E940E
:100DC000AF194B015C01123089F42B853C85B901C8
:100DD000882777FD8095982F0E94E2199B01AC012E
:100DE000B401882777FD8095982F17C0133019F527
:100DF000882777FD8095982F05C0B101882777FD5A
:100E00008095982F0E94E2199B01AC01EF81F88533
:100E1000BF01882777FD8095982F2F87388B498BC6
:100E20005A8B0E94E2192F85388949895A890E9474
:100E3000F0186B017C0120E030E0A901C701B60188
:100E40000E94431987FF0DC02BED3FE049EC50E4B1
:100E5000C701B6010E947D1820E030E044E353E46E
:100E600006C020E030E044E353E4C701B6010E942D
:100E7000C21A2BED3FE049E450E40E944719629604
:100E80000FB6F894DEBF0FBECDBFDF91CF911F919B
:100E90000F91FF90EF90DF90CF90BF90AF909F9019
:100EA0008F907F906F905F904F903F902F9008951C
:100EB000CF93DF93EC010E942B04AE014B5F5F4F99
:100EC00022E063E0CE010E947403882321F0992779
:100ED00087FD90950FC08C85813031F441E062E050
:100EE00070E0CE010E9464038D8190E0982F8827E6
:100EF0002E81822BDF91CF910895CF93DF93EC0168
:100F00000E942B04AE014B5F5F4F22E067E0CE01F1
:100F10000E947403882321F0992787FD90950FC0C4
:100F20008C85813031F441E062E070E0CE010E94B6
:100F300064038D8190E0982F88272E81822BDF918A
:100F4000CF910895CF93DF93EC010E942B04AE0163
:100F50004B5F5F4F22E065E0CE010E94740388235F
:100F600021F0992787FD90950FC08C85813031F451
:100F700041E062E070E0CE010E9464038D8190E068
:100F8000982F88272E81822BDF91CF91089588E4B6
:100F900092E00C94CF0788E492E00C94F80721E0EB
:100FA00030E0FC0131832083EE5FFE4F108211821E
:100FB0001282138234961082118212821382349626
:100FC0001082319610823196108211821282138221
:100FD00034961182108232961082319610821182DC
:100FE0001282138234961082118212821382089523
:100FF00008951F920F920FB60F9211240F931F9313
:101000002F933F934F935F936F937F938F939F9310
:10101000AF93BF93CF93EF93FF9382E00E94541559
:10102000C82F2091690330916A032F5F3F4F30939F
:101030006A03209369038091CF03843618F085E01A
:101040008093640390916403933079F018F49230A4
:1010500039F070C0943011F1953009F44AC06AC07B
:10106000C11168C01092CF0329C0C13009F062C01D
:10107000E091CF0381E08E0F8093CF03F0E0809169
:10108000690390916A03ED59FC4F808710926A03BF
:101090001092690384E0809364034CC0C11114C0B2
:1010A000E091CF0381E08E0F8093CF03F0E0809139
:1010B000690390916A03ED59FC4F808710926A038F
:1010C0001092690383E0E7CF8091690390916A03EE
:1010D0008536910578F185E0809364030E941F14A2
:1010E000609365037093660380936703909368032E
:1010F00021C00E941F140091650310916603209186
:10110000670330916803601B710B820B930B693C82
:1011100071058105910540F01092CF0310926A038A
:101120001092690382E0B7CFC11104C010926A0324
:1011300010926903FF91EF91CF91BF91AF919F9171
:101140008F917F916F915F914F913F912F911F915F
:101150000F910F900FBE0F901F901895DC01E62F96
:10116000F0E0EE0FFF1FE65FFE4F80818C938181E0
:1011700011968C93119712966C930895FC018281BD
:101180000895CF93DF93EC0188810E94E514888154
:101190000E94541521E0892B09F420E0822FDF9171
:1011A000CF9108951F93CF93DF93EC01162F61E049
:1011B00089810E94E514612F8981DF91CF911F9170
:1011C0000C941E15FF920F931F93CF93DF93EC01A6
:1011D000F62E8C01015E1F4FC8010E94AE08EF2D54
:1011E000F0E0EE0FFF1FE65FFE4F20E040816181DF
:1011F000CE010E94190D8EE391E09983888361E10D
:1012000072E0CE0182599F4F0E9465181DA21BA259
:101210001CA288A1FE01EA58FF4F80838F8D319672
:101220008083C8010E94BE0891E0853009F090E0FB
:101230009BA3DF91CF911F910F91FF900895CF92C3
:10124000DF92EF92FF92CF93DF93EC016A017B0173
:1012500060E472E48FE090E0A70196010E947E1B9B
:101260003FA32EA38BA1882369F026E0B701A60136
:1012700081ED95E0DF91CF91FF90EF90DF90CF90DF
:101280000C948C16B701A601CE01DF91CF91FF908F
:10129000EF90DF90CF900C94490DCF92DF92EF92B8
:1012A000FF920F931F93CF93DF93FC01C6A1D7A1A9
:1012B00023976C01F6E7CF0ED11CF60180810E94C6
:1012C0005415892BF1F400E010E0E12CF12CCE0153
:1012D0000E947614F60180810E945415002E02C0EF
:1012E000880F991F0A94E2F7E82AF92A0F5F1F4F27
:1012F0000830110561F7CE010E947614C7019927C5
:1013000002C08FEF9FEFDF91CF911F910F91FF9060
:10131000EF90DF90CF900895FC0123A1222321F0CC
:1013200081ED95E00C9427160C94820BFC0124A10E
:10133000222351F020A531A54FEF5FEF51A740A721
:1013400037FF0CC00C944D09FC0123A1222321F08E
:1013500081ED95E00C94C2150C94610BC9010895C0
:10136000CF93DF93EC018CA1882371F0CE010E9412
:101370004D0988A799A7892F8095881F8827881FDE
:1013800090E0DF91CF9108958BA1882331F081ED1A
:1013900095E0DF91CF910C94A915CE01DF91CF910B
:1013A0000C94EF0B1F920F920FB60F9211242F93F4
:1013B0003F934F935F936F937F938F939F93AF93DD
:1013C000BF93EF93FF938091D10387FF05C01092E5
:1013D0008500109284001AC02091D103332727FD85
:1013E00030958091D00390E0281739077CF48091E4
:1013F000D103992787FD9095FC01EE0FFF1FE80FA1
:10140000F91FEE52FC4F808186FD15C08091D103FB
:101410008F5F8093D1032091D103332727FD30952F
:101420008091D00390E028173907BCF48091D10354
:101430008C305CF112C08091D103992787FD909583
:10144000FC01EE0FFF1FE80FF91FEE52FC4F8081E9
:1014500060E08F730E941E15D9CF80918400909117
:101460008500049680349C4918F480E49CE905C00A
:1014700080918400909185000496909389008093D8
:1014800088008FEF8093D10338C020918400309181
:1014900085008091D103992787FD9095FC01EE0F7F
:1014A000FF1FE80FF91FEE52FC4F81819281820FDE
:1014B000931F90938900809388008091D10399278E
:1014C00087FD9095FC01EE0FFF1FE80FF91FEE520C
:1014D000FC4F808186FF11C08091D103992787FD41
:1014E0009095FC01EE0FFF1FE80FF91FEE52FC4F25
:1014F000808161E08F730E941E15FF91EF91BF9173
:10150000AF919F918F917F916F915F914F913F919B
:101510002F910F900FBE0F901F9018952091D00320
:101520002C30A0F431E0320F3093D003FC01208343
:10153000822F90E0FC01EE0FFF1FE80FF91FEE5223
:10154000FC4F88EB9BE09283818308952FEFFC0191
:1015500020830895DF92EF92FF920F931F93CF9312
:10156000DF93EC01D62E7A01890188818C3008F056
:1015700066C061E08D2D0E94E5148881A82FB0E03F
:10158000FD01EE0FFF1FEA0FFB1FEE52FC4F2D2D4A
:101590002F739081907C922B908360E272E06E19A1
:1015A0007F0977FF02C06D5F7F4F759567957595D1
:1015B0006795698340E659E0401B510B57FF02C015
:1015C0004D5F5F4F55954795559547954A836CE01C
:1015D0000E94281B9CE0899FB001112420E030E08C
:1015E000A901460F571FFA01EE0FFF1FE40FF51F69
:1015F000EE52FC4F908196FD16C02F5F3F4F2C306E
:10160000310571F781110FC01092800082E0809344
:1016100081001092850010928400B19A80916F0031
:10162000826080936F00888190E0FC01EE0FFF1FC5
:10163000E80FF91FEE52FC4F80818064808388811F
:10164000DF91CF911F910F91FF90EF90DF90089560
:1016500020E639E040E252E00C94AA0AFC018081C5
:101660008C3070F5918128E830E0291B310997FD15
:101670003395220F331F220F331F621773077CF03D
:10168000928128E532E0291B310997FD3395220F1D
:10169000331F220F331F621773070CF49B01225074
:1016A0003109220F331F4FB7F89490E0FC01EE0F81
:1016B000FF1FE80FF91FEE52FC4F328321834FBF0B
:1016C0000895209138043091390428173907B9F466
:1016D0009091F6038091F703981789F0E091F60353
:1016E000F0E0E850FC4F80812091F60330E02F5F5E
:1016F0003F4F2F7333272093F60390E008958FEF29
:101700009FEF08951F93CF93DF93DC015C968D913B
:101710009C915D97009749F481E090E013969C932B
:101720008E93129780E090E03BC05196ED91FC9132
:10173000529750962C915097322F30951FB75E9646
:101740004C915E9741FB772770F941FD6095F894C5
:101750004081772311F0422B01C043234083EC01E9
:101760002197F1F748E0508160FF02C0522B01C081
:1017700053235083EC012197F1F76695415099F777
:101780008081772311F0832301C0822B80831FBFC8
:101790005C968D919C915D970197F1F781E090E0C7
:1017A000DF91CF911F9108950895209138043091D1
:1017B00039042817390781F49091F6038091F703D3
:1017C000981751F0E091F603F0E0E850FC4F80816B
:1017D000992787FD909508958FEF9FEF08952091A9
:1017E0003804309139042817390771F48091F703D0
:1017F0002091F60390E0805C9F4F821B910960E48A
:1018000070E00E94481B089580E090E00895E09108
:101810003804F0913904E817F90769F4A389B48909
:101820009C918589809589238C931092390410921C
:10183000380481E0089580E00895CF93DF93EC01B0
:101840008A8D9B8D892BF1F0809138049091390419
:101850008C179D07B9F0009711F00E94070C8E8D30
:101860008E7F8E8F1092F7031092F603D093390477
:10187000C0933804EB89FC8980819D89892B808302
:1018800081E001C080E0DF91CF9108951F920F9217
:101890000FB60F9211242F933F934F935F936F9343
:1018A0007F938F939F93AF93BF93EF93FF93E091B9
:1018B0003804F0913904309709F451C0868DA6851B
:1018C000B785958581FF04C08C91892329F447C091
:1018D0008C91892309F043C0A389B4899C9185899F
:1018E000809589238C93868997890197F1F7208DBC
:1018F000318DA685B785758558E040E0C90101970F
:10190000F1F7842F90E095958795482F6C91672388
:1019100009F04068515091F7868D81FD4095809186
:10192000F70390E001968F7399272091F60328170B
:1019300049F0A091F703B0E0A850BC4F4C938093BE
:10194000F70303C0868D8160868F828D938D01970A
:10195000F1F7A389B4898C919589892B8C93FF9198
:10196000EF91BF91AF919F918F917F916F915F9117
:101970004F913F912F910F900FBE0F901F90189590
:101980002EE431E0FC01318320830C94070C1F937B
:10199000CF93DF93EC01162F6E8D6695617081E019
:1019A0006827812F0E941E1561E0812F0E94E51497
:1019B000812F90E0FC01E655FF4FE491E88BFC019C
:1019C000E254FF4FE491F0E0EE0FFF1FE452FF4FAF
:1019D000859194919A8B898BDF91CF911F91089576
:1019E0001F93CF93DF93EC01162F60E0812F0E94AD
:1019F000E5148E8D81FD04C061E0812F0E941E15CB
:101A00001C87812F90E0FC01E655FF4FE491ED87A4
:101A1000FC01E254FF4FE491F0E0EE0FFF1FEE52A5
:101A2000FF4F859194919F878E87DF91CF911F9172
:101A30000895FF920F931F93CF93DF93EC01F62E3F
:101A4000522F1B821A8208EE13E020E030E00C8354
:101A50001D832E833F838EE491E0998388831F8AC0
:101A60001E8A198E188E1B8E1A8E1D8E1C8E8E8DC0
:101A70008E7F50FB81F98E8F642FCE010E94C70CA0
:101A80006F2DCE01DF91CF911F910F91FF900C949C
:101A9000F00CCF93DF93EC019A01AB011B8E1A8EF1
:101AA000198E188E1F8A1E8A60E079E08DE390E01F
:101AB0000E947E1BC9012430310520F0B90163501A
:101AC000710902C061E070E07D8F6C8FEC85E631BA
:101AD00008F068C0B901769567956431710518F012
:101AE0006351710902C061E070E07F8B6E8B0697D5
:101AF00018F0C901059702C081E090E0998F888FA6
:101B0000C901880F991F820F931F96958795969507
:101B100087958D30910510F00C9702C081E090E020
:101B20009B8F8A8F20916800E83050F091E0EE3072
:101B300008F490E081E001C0880F9A95EAF701C0AF
:101B400084E0822B809368002C85283038F02E307A
:101B500040F0263148F48CE690E008C08DE690E035
:101B600005C08BE690E002C080E090E09C8B8B8B00
:101B7000283030F481E001C0880F2A95EAF70DC0C3
:101B8000822F90E02E3010F4089701C00E9791E05C
:101B900001C0990F8A95EAF7892F8D8B8C8D9D8DC9
:101BA0000197F1F7CE01DF91CF910C941D0C80913C
:101BB0006A0490E020916B04821B910908952091A2
:101BC0006B0480916A04281750F4E22FF0E0E45986
:101BD000FB4F808190E02F5F20936B0408958FEF7F
:101BE0009FEF0895E0916B0480916A04E81730F448
:101BF000F0E0E459FB4F808190E008958FEF9FEF74
:101C000008950895CF92DF92EF92FF920F931F9362
:101C1000CF93DF937C01CB018A01209146042223DC
:101C200089F0EB016B01C40ED51ECC15DD0569F002
:101C30006991D701ED91FC910190F081E02DC701F0
:101C40000995F3CF642F0E94B70FC801DF91CF91A0
:101C50001F910F91FF90EF90DF90CF900895CF9359
:101C6000DF931F92CDB7DEB769832091460422230C
:101C7000D1F020914704203240F021E030E0FC0117
:101C80003383228380E090E015C080914804E82FE0
:101C9000F0E0E75BFB4F998190838F5F809348046E
:101CA0008093470405C061E0CE0101960E94B70F02
:101CB00081E090E00F90DF91CF910895FC011382B5
:101CC000128248EE53E060E070E0448355836683FF
:101CD00077838EE591E091838083089510926B0461
:101CE00010926A0410924804109247040C94FA0E61
:101CF00081E0809346046093690410924804109236
:101D0000470408950F93062F21E04091470469E4AA
:101D100074E0809169040E94600F10924804109250
:101D20004704109246040F9108958F929F92AF92AC
:101D3000BF92CF92DF92EF92FF920F931F93CF93B8
:101D4000DF93EC01F62ED42E48015901EE2019F153
:101D50000E94780E1E2D143008F013E01150B8F0D8
:101D6000E881F98128E0129FB0011124A5019401B6
:101D700004C056954795379527956A95D2F7CA01BD
:101D8000B9010190F081E02DCE010995E7CF60E027
:101D9000CE010E94820E4D2D413208F040E22C2DE2
:101DA0006CE674E08F2D0E94180F10926B048093E4
:101DB0006A04DF91CF911F910F91FF90EF90DF9018
:101DC000CF90BF90AF909F908F900895CF92EF9259
:101DD0000F931F93C22EE12C00E010E098010E94A7
:101DE000950E1F910F91EF90CF9008958AE394E0A4
:101DF0000C945E0E1092F90481E08093F704109227
:101E0000F60461E082E10E941E1561E083E10E9418
:101E10001E15E9EBF0E080818E7F808380818D7FCD
:101E2000808388E48093B80085E48093BC000895A3
:101E3000413208F043C09091F9049111FCCF91E038
:101E40009093F9042093F7042FEF20938C041092C1
:101E5000D104240F2093D0049093F8049091F804B7
:101E6000880F892B8093F8048091F604813061F407
:101E70001092F6048091F8048093BB008091BC001E
:101E800083FDF8CF85EC01C085EE8093BC00809186
:101E9000F9048130E1F38091D104841710F440916A
:101EA000D10422ED34E0FB01D9018A2F821B841773
:101EB00018F48D918193F9CF842F089580E00895CF
:101EC0000F93413208F04AC09091F9049111FCCF70
:101ED00092E09093F9040093F7049FEF90938C04A1
:101EE0001092D1044093D004FB0162ED74E0DB0159
:101EF0009A2F961B941718F491919D93F9CF1092F5
:101F0000F8049091F804880F892B8093F80480914D
:101F1000F604813061F41092F6048091F804809305
:101F2000BB008091BC0083FDF8CF85EC01C085EE3D
:101F30008093BC00222321F08091F9048230E1F3E8
:101F400080918C048F3F61F080918C04803251F03D
:101F500080918C04803341F483E007C081E005C0A8
:101F600080E003C082E001C084E00F9108956132F7
:101F700098F42091F904243089F46093AE04FC01B4
:101F800080EB94E0DC012A2F281B261718F42191FE
:101F90002D93F9CF80E0089581E0089582E00895BF
:101FA00085ED8093BC008091BC0084FDFCCF109235
:101FB000F904089585EC8093BC001092F90408950B
:101FC0001F920F920FB60F9211242F933F934F93AE
:101FD0005F936F937F938F939F93AF93BF93EF9391
:101FE000FF938091B900887F803609F49EC078F510
:101FF000883209F45DC090F4803109F456C038F499
:10200000882309F4F5C0883009F44FC0F5C0883141
:1020100009F44EC0803209F45FC0EEC0803409F488
:102020006AC058F4803309F457C0883309F0E4C01B
:1020300080938C040E94DA0FDFC0803509F44FC012
:10204000883509F45DC0883409F0D6C0D3C088391A
:1020500009F4C4C0A8F4883709F467C038F4883696
:1020600009F463C0803709F460C0C6C0883809F439
:10207000B5C0803909F45FC0803809F0BDC05BC0CD
:10208000803B09F483C038F4803A09F466C0883A8A
:1020900009F47CC0B1C0803C09F4A4C0883C09F4B8
:1020A000A1C0883B09F487C0A7C08091F80410C084
:1020B0009091D1048091D004981770F5E091D104EB
:1020C00081E08E0F8093D104F0E0EE52FB4F8081CF
:1020D0008093BB0085EC83C080938C048BC0E0911F
:1020E000D10481E08E0F8093D1048091BB00F0E099
:1020F000EE52FB4F80839091D1048091D0046BC04D
:10210000E091D10481E08E0F8093D1048091BB00D7
:10211000F0E0EE52FB4F80838091F70481116AC09A
:1021200081E08093F60484EA5EC083E08093F90442
:1021300010928D04CFCF80918D04803208F04EC074
:10214000E0918D0481E08E0F80938D048091BB001F
:10215000F0E0E257FB4F8083BDCF0E94DA0F809101
:102160008D04803230F4E0918D04F0E0E257FB4FB3
:10217000108260918D0470E0E091F204F091F3041C
:102180008EE894E0099510928D0436C084E0809327
:10219000F9041092AF041092AE04E091F404F091AF
:1021A000F50409958091AE04811105C081E080930A
:1021B000AE041092B004E091AF0481E08E0F8093E2
:1021C000AF04F0E0E055FB4F80818093BB0090911D
:1021D000AF048091AE04981708F47CCF85E8809313
:1021E000BC000AC085EC8093BC001092F90404C0C6
:1021F00010928C040E94D00FFF91EF91BF91AF918C
:102200009F918F917F916F915F914F913F912F910E
:102210000F900FBE0F901F90189526E040E855E2F2
:1022200060E070E081ED95E00E948C1640E052EC99
:1022300061E070E08FEF94E00E941F0964EA71E0B2
:1022400081ED95E00E94E51765EB71E08FEF94E07A
:102250000E94E51761E08CE00E94E51460E08DE0EB
:102260000E94E51465EC71E081ED95E00E94E517B0
:1022700042E063E087E795E00E943D0668EC70E08D
:1022800080E090E00E944E1487E795E00E941606D9
:1022900068EC70E080E090E00E944E1461EE71E026
:1022A00081ED95E00E94E51787E795E00E94C6035F
:1022B000882319F06AE671E002C069E871E081EDF7
:1022C00095E00E94E51769E070E08CEF94E00E94D1
:1022D000280B6FEF8AEF94E00E94220264E08AEFFD
:1022E00094E00C94C2018F929F92AF92BF92CF92D2
:1022F000DF92EF92FF9287E795E00E945807909354
:10230000A3058093A20587E795E00E947D0790933F
:10231000A1058093A00587E795E00E94A20790930E
:102320009F0580939E0587E795E00E9446066B0116
:102330007C016093BC057093BD058093BE059093AE
:10234000BF0520E030E040E751E40E947D184B01DA
:102350005C0120E030E044EB53E40E94B71A181609
:102360004CF08092B4059092B505A092B605B0925B
:10237000B70510C020E030E044EB53E4C501B401E0
:102380000E947C186093B4057093B5058093B605E0
:102390009093B70520E030E040E751E4C701B60173
:1023A0000E947C186B017C0120E030E0A9010E94B2
:1023B000431987FD09C0C092B005D092B105E092E3
:1023C000B205F092B30510C020E030E044EB53E4D6
:1023D000C701B6010E947D186093B0057093B105E6
:1023E0008093B2059093B305FF90EF90DF90CF906C
:1023F000BF90AF909F908F9008958F929F92AF92D1
:10240000BF92CF92DF92EF92FF9220E030E044E360
:1024100053E46091BC057091BD058091BE0590911B
:10242000BF050E947D186B017C0120E030E044EB89
:1024300053E40E94B71A18164CF0C092AC05D09223
:10244000AD05E092AE05F092AF0510C020E030E09F
:1024500044EB53E4C701B6010E947C186093AC05BD
:102460007093AD058093AE059093AF058090AC0559
:102470009090AD05A090AE05B090AF0520E030E0A3
:1024800040E751E4C501B4010E947D186B017C0155
:1024900020E030E044EB53E40E94B71A18164CF0E9
:1024A000C092A805D092A905E092AA05F092AB05CA
:1024B00010C020E030E044EB53E4C701B6010E94B5
:1024C0007C186093A8057093A9058093AA05909342
:1024D000AB0520E030E040E751E4C501B4010E94C3
:1024E0007C186B017C0120E030E0A9010E944319B7
:1024F00087FD09C0C092A405D092A505E092A6056B
:10250000F092A70510C020E030E044EB53E4C7018F
:10251000B6010E947D186093A4057093A505809371
:10252000A6059093A70564E670E080E090E0FF9038
:10253000EF90DF90CF90BF90AF909F908F900C94D2
:102540004E1466E98AEF94E00E94220261E08AEF6D
:1025500094E00C94C2016EE977E08CEF94E00E9465
:102560002E0B6FEF8AEF94E00E94220261E08AEF67
:1025700094E00C94C2010E9473110E94FD112091FD
:10258000A4053091A5054091A6055091A70560913D
:10259000BC057091BD058091BE059091BF050E945C
:1025A000431987FF05C00E9473110E94AB12E7CF49
:1025B0002091A8053091A9054091AA055091AB053D
:1025C0006091B8057091B9058091BA059091BB05ED
:1025D0000E94B71A18163CF308950F931F9360E0FA
:1025E0008CE00E941E1582E090E00E94761461E06B
:1025F0008CE00E941E1585E090E00E94761460E059
:102600008CE00E941E1520E432E44FE050E061E0CF
:102610008DE00E947D156093C4057093C50580937D
:10262000C6059093C7050E94E2192DEC3CEC48E6E4
:1026300052E40E9447190E94AF198B019C01065079
:10264000110921093109063211402105310548F4EB
:102650006093C0057093C1058093C2059093C30534
:102660000CC08CE291E0A0E0B0E08093C0059093B4
:10267000C105A093C205B093C30562E370E080E09A
:1026800090E00E944E141F910F9108950E947311C3
:102690000E94ED126CED75E08CEF94E00E942E0B21
:1026A0008091C0059091C105A091C205B091C3056C
:1026B000CD97A105B1057CF48091C0059091C1052D
:1026C000A091C205B091C305CC97A105B1050CF04E
:1026D00040C00C94BB126CED75E08CEF94E00E944E
:1026E0002E0B0E94A1122091B4053091B5054091A6
:1026F000B6055091B7056091B8057091B905809104
:10270000BA059091BB050E94B71A18163CF460EB0D
:1027100074E08CEF94E00E942E0BE5CF2091B00581
:102720003091B1054091B2055091B3056091B80563
:102730007091B9058091BA059091BB050E9443192B
:1027400087FFBACF64EA76E08CEF94E00E942E0B0C
:10275000E5CF0E9473110E94ED126CED75E08CEFD5
:1027600094E00E942E0B0C94A11287E795E00E9442
:1027700049028FEF94E00E943C028CEF94E00E94AB
:102780008E0A42E064E08AEF94E00C9465018EE3E7
:1027900091E0909300058093FF048DE695E00E9400
:1027A000F7178FEF94E00C94C00C1F920F920FB6A6
:1027B0000F9211242F933F938F939F93AF93BF93C7
:1027C0008091C9059091CA05A091CB05B091CC0527
:1027D0003091C80523E0230F2D3720F40196A11D69
:1027E000B11D05C026E8230F0296A11DB11D20933F
:1027F000C8058093C9059093CA05A093CB05B093F3
:10280000CC058091CD059091CE05A091CF05B091DA
:10281000D0050196A11DB11D8093CD059093CE05E5
:10282000A093CF05B093D005BF91AF919F918F91A9
:102830003F912F910F900FBE0F901F9018952FB7BB
:10284000F8946091C9057091CA058091CB0590916B
:10285000CC052FBF08953FB7F8948091CD05909196
:10286000CE05A091CF05B091D00526B5A89B05C097
:102870002F3F19F00196A11DB11D3FBF6627782F8C
:10288000892F9A2F620F711D811D911D42E0660FE5
:10289000771F881F991F4A95D1F70895CF92DF922D
:1028A000EF92FF92CF93DF936B017C010E942B1478
:1028B000EB01C114D104E104F10489F00E947B18FA
:1028C0000E942B146C1B7D0B683E734090F381E0DB
:1028D000C81AD108E108F108C851DC4FEACFDF91EE
:1028E000CF91FF90EF90DF90CF90089582309105C7
:1028F00038F0880F991F880F991F05970197F1F7F6
:102900000895789484B5826084BD84B5816084BD67
:1029100085B5826085BD85B5816085BDEEE6F0E058
:10292000808181608083E1E8F0E0108280818260B4
:102930008083808181608083E0E8F0E08081816035
:102940008083E1EBF0E0808184608083E0EBF0E065
:10295000808181608083EAE7F0E080818460808309
:1029600080818260808380818160808380818068B3
:1029700080831092C1000895833081F028F4813063
:1029800099F08230A1F008958730A9F08830B9F02D
:102990008430D1F4809180008F7D03C080918000CD
:1029A0008F7780938000089584B58F7702C084B5B7
:1029B0008F7D84BD08958091B0008F7703C0809192
:1029C000B0008F7D8093B0000895CF93DF9390E0A7
:1029D000FC01E655FF4F2491FC01E254FF4F849126
:1029E000882349F190E0880F991FFC01EA51FF4FBD
:1029F000A591B49184529F4FFC01C591D4919FB78A
:102A0000611108C0F8948C91209582238C93888161
:102A100082230AC0623051F4F8948C91322F3095A1
:102A200083238C938881822B888304C0F8948C91B3
:102A3000822B8C939FBFDF91CF9108950F931F93AB
:102A4000CF93DF931F92CDB7DEB7282F30E0F90187
:102A5000EA56FF4F8491F901E655FF4F1491F901B1
:102A6000E254FF4F04910023C9F0882321F06983C9
:102A70000E94BC146981E02FF0E0EE0FFF1FE452CA
:102A8000FF4FA591B4919FB7F8948C91611103C049
:102A90001095812301C0812B8C939FBF0F90DF91F4
:102AA000CF911F910F910895CF93DF93282F30E09E
:102AB000F901EA56FF4F8491F901E655FF4FD49191
:102AC000F901E254FF4FC491CC2391F081110E948F
:102AD000BC14EC2FF0E0EE0FFF1FEE52FF4FA5915C
:102AE000B4912C912D2381E090E021F480E002C08C
:102AF00080E090E0DF91CF9108950F931F93762FA0
:102B000090E0FC01E655FF4F6491FC01E254FF4F59
:102B1000E4917111762FF0E0EE0FFF1FEE52FF4FA0
:102B20008591949189019A013F70472F0E94A900D5
:102B3000611571058105910531F06F5F7F4F8F4FF2
:102B40009F4F9F7003C060E070E0CB011F910F9119
:102B50000895FC01818D228D90E0805C9F4F821B47
:102B600091098F7399270895FC01918D828D981793
:102B700031F0828DE80FF11D858D90E008958FEF83
:102B80009FEF0895FC01918D828D981761F0828DE1
:102B9000DF01A80FB11D5D968C91928D9F5F9F7391
:102BA000928F90E008958FEF9FEF089586E497E16C
:102BB000892B49F080E090E0892B29F00E9446178C
:102BC00081110C9400000895FC01848DDF01A80F91
:102BD000B11DA35ABF4F2C91848D90E001968F7345
:102BE0009927848FA689B7892C93A089B1898C9164
:102BF00080648C93938D848D981306C00288F3892A
:102C0000E02D80818F7D80830895CF93DF93EC0149
:102C1000888D8823C9F0EA89FB89808185FD05C0FC
:102C2000A889B9898C9186FD0FC00FB607FCF5CF36
:102C3000808185FFF2CFA889B9898C9185FFEDCF7E
:102C4000CE010E94E415E7CFDF91CF910895CF9296
:102C5000DF92FF920F931F93CF93DF931F92CDB715
:102C6000DEB76C0181E0D60158968C9358975B963D
:102C70009C915B975C968C915C97981307C05096DB
:102C8000ED91FC915197808185FD2EC0F601038D59
:102C900010E00F5F1F4F0F731127F02EF601848D88
:102CA000F81211C00FB607FCF9CFD6015096ED917E
:102CB000FC915197808185FFF1CFC60169830E9405
:102CC000E4156981EBCF838DE80FF11DE35AFF4FC7
:102CD0006083D6015B960C935B975296ED91FC91C5
:102CE0005397808180620CC0D6015696ED91FC917D
:102CF000579760835096ED91FC9151978081806445
:102D0000808381E090E00F90DF91CF911F910F9130
:102D1000FF90DF90CF900895BF92CF92DF92EF9215
:102D2000FF92CF93DF93EC016A017B01B22EE88919
:102D3000F98982E08083411581EE580761057105AC
:102D4000A1F060E079E08DE390E0A70196010E9498
:102D50005C1B21503109410951095695479537951A
:102D60002795211580E1380798F0E889F9891082C4
:102D700060E874E88EE190E0A70196010E945C1B78
:102D800021503109410951095695479537952795A5
:102D9000EC85FD853083EE85FF852083188EEC89D8
:102DA000FD89B082EA89FB89808180618083EA891C
:102DB000FB89808188608083EA89FB8980818068C3
:102DC0008083EA89FB8980818F7D8083DF91CF9129
:102DD000FF90EF90DF90CF90BF9008951F920F92D9
:102DE0000FB60F9211242F938F939F93EF93FF931E
:102DF000E091E105F091E2058081E091E705F09135
:102E0000E80582FD12C090818091EA058F5F8F7383
:102E10002091EB05821751F0E091EA05F0E0EF52C6
:102E2000FA4F958F8093EA0501C08081FF91EF9161
:102E30009F918F912F910F900FBE0F901F9018951B
:102E40001F920F920FB60F9211242F933F934F931F
:102E50005F936F937F938F939F93AF93BF93EF9302
:102E6000FF9381ED95E00E94E415FF91EF91BF91F2
:102E7000AF919F918F917F916F915F914F913F9112
:102E80002F910F900FBE0F901F90189581ED95E038
:102E90000E94A91521E0892B09F420E0822F0895D2
:102EA0001092D4051092D30588EE93E0A0E0B0E034
:102EB0008093D5059093D605A093D705B093D805F8
:102EC00088E292E09093D2058093D10585EC90E062
:102ED0009093DE058093DD0584EC90E09093E0050F
:102EE0008093DF0580EC90E09093E2058093E1050C
:102EF00081EC90E09093E4058093E30582EC90E010
:102F00009093E6058093E50586EC90E09093E805C4
:102F10008093E7051092EA051092EB051092EC05FC
:102F20001092ED05089508950E9481140E94931750
:102F30000E940D11C6EDD5E10E9446132097E1F3E2
:102F40000E94D615F9CFCF92DF92EF92FF920F93A6
:102F50001F93CF93DF937C016A01EB0100E010E047
:102F60000C151D0571F06991D701ED91FC9101904F
:102F7000F081E02DC7010995892B19F00F5F1F4FD4
:102F8000EFCFC801DF91CF911F910F91FF90EF908C
:102F9000DF90CF9008956115710581F0DB010D90F0
:102FA0000020E9F7AD0141505109461B570BDC01E8
:102FB000ED91FC910280F381E02D099480E090E096
:102FC000089564E372E00C94CB170F931F93CF9393
:102FD000DF93EC010E94CB178C01CE010E94E11718
:102FE000800F911FDF91CF911F910F910895FC01E8
:102FF000808191810C943B1CCF93DF93EC018881FD
:103000009981009711F00E943B1C198218821D8241
:103010001C821B821A82DF91CF9108950F931F9318
:10302000CF93DF93EC018B016F5F7F4F8881998194
:103030000E94CA1C009731F0998388831B830A83FE
:1030400081E001C080E0DF91CF911F910F91089541
:10305000CF93DF93EC0188819981892B29F08A81B4
:103060009B818617970760F4CE010E940E18882373
:1030700041F08C819D81892B19F4E881F9811082BE
:1030800081E0DF91CF910895EF92FF920F931F930C
:10309000CF93DF93EC017B018A01BA010E942818CB
:1030A000811104C0CE010E94FC1707C01D830C8350
:1030B000B701888199810E949D1DCE01DF91CF913A
:1030C0001F910F91FF90EF900895FC0111821082E3
:1030D00013821282158214826115710559F0FB0169
:1030E00001900020E9F7AF0141505109461B570BF1
:1030F0000C944418089508955058BB27AA270ED061
:10310000FCC1EDD130F0F2D120F031F49F3F11F449
:103110001EF4BDC10EF4E095E7FBB3C1E92FFED16B
:1031200080F3BA17620773078407950718F071F4E4
:103130009EF516C20EF4E0950B2EBA2FA02D0B01B2
:10314000B90190010C01CA01A0011124FF27591BEC
:1031500099F0593F50F4503E68F11A16F040A22FF2
:10316000232F342F4427585FF3CF46953795279563
:10317000A795F0405395C9F77EF41F16BA0B620B62
:10318000730B840BBAF09150A1F0FF0FBB1F661FA9
:10319000771F881FC2F70EC0BA0F621F731F841FEC
:1031A00048F4879577956795B795F7959E3F08F012
:1031B000B3CF9395880F08F09927EE0F97958795D1
:1031C00008958DD158F080E891E009F49EEF8ED1FA
:1031D00028F040E851E059F45EEF09C058C1C0C181
:1031E000E92FE0789BD168F3092E052AC1F3261751
:1031F00037074807590738F00E2E07F8E02569F021
:10320000E025E0640AC0EF6307F8009407FADB01E9
:10321000B9019D01DC01CA01AD01EF9347D06DD129
:103220000AD05F91552331F02BED3FE049E450FD8A
:1032300049EC63CF0895DF93DD27B92FBF7740E8CE
:103240005FE31616170648075B0710F4D92F93D1D2
:103250009F938F937F936F93F8D1E8E6F0E01AD1B4
:103260004CD12F913F914F915F9198D1DD2349F03F
:103270009058A2EA2AED3FE049EC5FE3D0785D2761
:103280004DDFDF913AC1D9D008F481E008950CD028
:1032900034C12CD140F023D130F021F45F3F19F03C
:1032A000F0C051115EC1F3C039D198F39923C9F32D
:1032B0005523B1F3951B550BBB27AA27621773073C
:1032C000840738F09F5F5F4F220F331F441FAA1FF0
:1032D000A9F333D00E2E3AF0E0E830D091505040B0
:1032E000E695001CCAF729D0FE2F27D0660F771F5E
:1032F000881FBB1F261737074807AB07B0E809F040
:10330000BB0B802DBF01FF2793585F4F2AF09E3FD4
:10331000510568F0B6C025C15F3FECF3983EDCF381
:10332000869577956795B795F7959F5FC9F7880F4D
:10333000911D9695879597F90895E1E0660F771F9F
:10334000881FBB1F621773078407BA0720F0621B30
:10335000730B840BBA0BEE1F88F7E095089504D029
:103360006894B111FEC00895E1D088F09F5790F0A5
:10337000B92F9927B751A0F0D1F0660F771F881F9A
:10338000991F1AF0BA95C9F712C0B13081F0E8D090
:10339000B1E00895E5C0672F782F8827B85F39F02E
:1033A000B93FCCF3869577956795B395D9F73EF4F9
:1033B00090958095709561957F4F8F4F9F4F0895A1
:1033C000E89409C097FB3EF49095809570956195BF
:1033D0007F4F8F4F9F4F9923A9F0F92F96E9BB2775
:1033E0009395F695879577956795B795F111F8CFF1
:1033F000FAF4BB0F11F460FF1BC06F5F7F4F8F4F5C
:103400009F4F16C0882311F096E911C0772321F051
:103410009EE8872F762F05C0662371F096E8862FE9
:1034200070E060E02AF09A95660F771F881FDAF740
:10343000880F9695879597F90895990F0008550F6D
:10344000AA0BE0E8FEEF16161706E807F907C0F02A
:1034500012161306E407F50798F0621B730B840B32
:10346000950B39F40A2661F0232B242B252B21F40C
:1034700008950A2609F4A140A6958FEF811D811DAC
:10348000089597F99F6780E870E060E008959FEFE6
:1034900080EC0895DF93CF931F930F93FF92EF92E9
:1034A000DF927B018C01689405C0DA2EEF0176D0A3
:1034B000FE01E894A5912591359145915591AEF382
:1034C000EF012CDEFE019701A801DA9479F7DF9075
:1034D000EF90FF900F911F91CF91DF9108950024FD
:1034E0000A941616170618060906089500240A9469
:1034F00012161306140605060895092E0394000CEF
:1035000011F4882352F0BB0F40F4BF2B11F460FF7D
:1035100004C06F5F7F4F8F4F9F4F089557FD9058A6
:10352000440F551F59F05F3F71F04795880F97FB87
:10353000991F61F09F3F79F0879508951216130641
:103540001406551FF2CF4695F1DF08C01616170670
:103550001806991FF1CF86957105610508940895A5
:10356000E894BB2766277727CB0197F9089565DF95
:1035700008F48FEF08959B01AC0160E070E080E8F3
:103580009FE385CE0BD0B9CFAADF28F0AFDF18F0CC
:10359000952309F076CF7BCF1124E3CFBFDFA0F3D3
:1035A000959FD1F3950F50E0551F629FF001729FD8
:1035B000BB27F00DB11D639FAA27F00DB11DAA1FF7
:1035C000649F6627B00DA11D661F829F2227B00D44
:1035D000A11D621F739FB00DA11D621F839FA00DCF
:1035E000611D221F749F3327A00D611D231F849F1F
:1035F000600D211D822F762F6A2F11249F57504076
:103600008AF0E1F088234AF0EE0FFF1FBB1F661F10
:10361000771F881F91505040A9F79E3F510570F0C9
:1036200030CF9FCF5F3FECF3983EDCF386957795E4
:103630006795B795F795E7959F5FC1F7FE2B880FC4
:10364000911D9695879597F908959B01AC019ACFA6
:10365000991B79E004C0991F961708F0961B881FE4
:103660007A95C9F780950895AA1BBB1B51E107C045
:10367000AA1FBB1FA617B70710F0A61BB70B881F02
:10368000991F5A95A9F780959095BC01CD01089591
:1036900097FB072E16F4009407D077FD09D00E94FF
:1036A000341B07FC05D03EF4909581959F4F0895FB
:1036B000709561957F4F0895A1E21A2EAA1BBB1B3E
:1036C000FD010DC0AA1FBB1FEE1FFF1FA217B307EE
:1036D000E407F50720F0A21BB30BE40BF50B661F04
:1036E000771F881F991F1A9469F7609570958095C8
:1036F00090959B01AC01BD01CF010895052E97FB6C
:103700001EF400940E94951B57FD07D00E945C1B7D
:1037100007FC03D04EF40C94951B509540953095C2
:1037200021953F4F4F4F5F4F08959095809570952D
:1037300061957F4F8F4F9F4F0895EE0FFF1F0590AC
:10374000F491E02D0994CF93DF938230910510F42A
:1037500082E090E0E0917006F091710620E030E0A8
:10376000A0E0B0E0309739F1408151814817590706
:10377000B8F04817590771F482819381109729F0A6
:1037800013969C938E9312972CC0909371068093FE
:10379000700627C02115310531F04217530718F084
:1037A000A901DB0101C0EF019A01BD01DF01028027
:1037B000F381E02DD7CF21153105F9F0281B390B06
:1037C0002430310580F48A819B816115710521F0D7
:1037D000FB019383828304C09093710680937006EB
:1037E000FE01329644C0FE01E20FF31F81939193D4
:1037F00022503109398328833AC020916E063091D6
:103800006F06232B41F42091020130910301309384
:103810006F0620936E062091000130910101211561
:10382000310541F42DB73EB7409104015091050197
:10383000241B350BE0916E06F0916F06E217F3073B
:10384000A0F42E1B3F0B2817390778F0AC014E5F10
:103850005F4F2417350748F04E0F5F1F50936F06D8
:1038600040936E068193919302C0E0E0F0E0CF01B7
:10387000DF91CF910895CF93DF93009709F487C02C
:10388000FC01329713821282C0917006D0917106AA
:10389000209781F420813181280F391F80916E0695
:1038A00090916F068217930779F5F0936F06E09376
:1038B0006E066DC0DE0120E030E0AE17BF0750F4A9
:1038C00012964D915C9113979D014115510509F197
:1038D000DA01F3CFB383A28340815181840F951F16
:1038E0008A179B0771F48D919C911197840F951FF6
:1038F00002969183808312968D919C911397938366
:1039000082832115310529F4F0937106E093700646
:103910003EC0D9011396FC93EE9312974D915D91A1
:10392000A40FB51FEA17FB0779F480819181840FFA
:10393000951F0296D90111969C938E938281938153
:1039400013969C938E931297E0E0F0E08A819B811E
:10395000009719F0FE01EC01F9CFCE010296288103
:103960003981820F931F20916E0630916F062817C0
:10397000390769F4309729F4109271061092700695
:1039800002C013821282D0936F06C0936E06DF913D
:10399000CF910895A0E0B0E0E0EDFCE10C94BE1DF5
:1039A000EC01CB01209719F40E94A31BB8C0FE01C3
:1039B000E60FF71F9E0122503109E217F30708F4C2
:1039C000ACC0D9010D911C91119706171707B8F0DB
:1039D0000530110508F49FC0A8014450510946174D
:1039E000570708F498C002501109061B170B0193E2
:1039F00011936D937C93CF010E943B1C8CC05B01A3
:103A0000A01AB10A4E01800E911EA0917006B091CD
:103A10007106612C712C60E070E0109709F449C0C8
:103A2000A815B905C9F5ED90FC901197670142E022
:103A3000C40ED11CCA14DB0478F147018A189B0814
:103A4000640142E0C40ED11C1296BC9012971396EA
:103A5000AC91B5E0CB16D10440F0B282A383918241
:103A60008082D9018D939C9309C00E5F1F4F0E0D6C
:103A70001F1DF90111830083EB2DFA2F61157105CC
:103A800031F0DB011396FC93EE93129744C0F09350
:103A90007106E09370063FC06D917C911197661698
:103AA000770608F43B01BD0112960D90BC91A02D44
:103AB000B4CF60916E0670916F0668157905E9F4D0
:103AC00068167906D0F4409100015091010141152A
:103AD000510541F44DB75EB7609104017091050145
:103AE000461B570BE417F507C0F4F0936F06E093FD
:103AF0006E06F901918380830EC00E94A31B7C0196
:103B0000009759F0A801BE010E94941DCE010E94A9
:103B10003B1CC70104C0CE0102C080E090E0CDB7DD
:103B2000DEB7EEE00C94DA1DFB01DC0102C001906F
:103B30000D9241505040D8F70895FB01DC010190EF
:103B40000D920020E1F70895F999FECF92BD81BD55
:103B5000F89A992780B50895262FF999FECF1FBAB4
:103B600092BD81BD20BD0FB6F894FA9AF99A0FBEA6
:103B7000019608952F923F924F925F926F927F929B
:103B80008F929F92AF92BF92CF92DF92EF92FF926D
:103B90000F931F93CF93DF93CDB7DEB7CA1BDB0B19
:103BA0000FB6F894DEBF0FBECDBF09942A883988BE
:103BB00048885F846E847D848C849B84AA84B984C5
:103BC000C884DF80EE80FD800C811B81AA81B981D1
:103BD000CE0FD11D0FB6F894DEBF0FBECDBFED01E5
:103BE000089510E0CAEFD0E004C0FE010E949F1BC0
:0C3BF0002296CE3FD107C9F7F894FFCF12
:103BFC000000720680000100000000000B0A03099F
:103C0C000C0D080200001011140F150E0607050408
:103C1C000000000000000000000000008C09A31749
:103C2C00B0099609D50BD40B3D00000000008C099F
:103C3C00A317B0099609D50BD40B00000000820B1A
:103C4C00A317EF0B610BD50BD40B000000002F0E4C
:103C5C00020ED70DDF0DF20D010E484D43353838ED
:103C6C00334C20636F6E6E656374696F6E20737571
:103C7C00636365737366756C00484D433538383330
:103C8C004C20636F6E6E656374696F6E206661693C
:103C9C006C656400426C7565746F6F746820537446
:103CAC006172742100426C7565746F6F7468205377
:103CBC007461727400496E697469616C697A696EB9
:103CCC00672049324320646576696365732E2E2E16
:103CDC000054657374696E6720646576696365204A
:103CEC00636F6E6E656374696F6E732E2E2E004457
:103CFC00697374616E6365203A200020636D00095E
:103D0C00090048656164696E67203A002064656744
:103D1C0072656500000000002716A317A915C215CF
:103D2C00B41505160D0A006E616E00696E66006FA3
:043D3C0076660000A7
:00000001FF
