:100000000C945E000C9486000C9486000C94860080
:100010000C9486000C9486000C9486000C94860048
:100020000C9486000C9486000C9486000C94D601E7
:100030000C9486000C9486000C9486000C94860028
:100040000C94DA020C9486000C9486000C948600C2
:100050000C9486000C9486000C9486000C94860008
:100060000C9486000C948600000000080002010039
:100070000003040700000000000000000102040863
:100080001020408001020408102001020408102002
:10009000040404040404040402020202020203032E
:1000A0000303030300000000250028002B000000CC
:1000B0000000240027002A00D301D40211241FBE0F
:1000C000CFEFD8E0DEBFCDBF11E0A0E0B1E0E6EBBE
:1000D000F8E002C005900D92A430B107D9F721E0F5
:1000E000A4E0B1E001C01D92A733B207E1F710E030
:1000F000CCEBD0E004C02297FE010E945504C83B1F
:10010000D107C9F70E9443040C9459040C940000D1
:1001100084B5836884BD17BC61E086E00C94D3038A
:1001200084B5836284BD18BC61E085E00C94D30380
:10013000CF93DF9360E08CE00E940C0460E088E0E5
:100140000E940C04C7E0D0E060E084E00E940C0450
:100150008091050190E00C2E02C0959587950A9438
:10016000E2F780FF02C061E001C060E088E00E9429
:100170000C0461E084E00E940C04219728F761E000
:100180008CE0DF91CF910C940C04CF93DF93EC01C2
:1001900061E08CE00E94D30361E087E00E94D3031A
:1001A00061E088E00E94D30361E084E00E94D30311
:1001B00010920501CE010E94980060E087E0DF9177
:1001C000CF910C940C04E0EBF0E090819368908365
:1001D00087708093B1001092B30061E08BE00C94C3
:1001E000D303E0EBF0E0908193629083877080937B
:1001F000B1001092B40061E083E00C94D3031F932C
:10020000CF93DF931F92CDB7DEB7FC01142F60832D
:10021000418384E091E069830E94C5006981623076
:1002200039F198F4613009F042C080910501837F73
:100230008093050184E091E00E949800812F0F9047
:10024000DF91CF911F910C94E300633009F164308A
:1002500071F5809105018E7B8093050184E091E02A
:100260000E9498000F90DF91CF911F910C94900005
:10027000809105018D7E8093050184E091E00E94CC
:100280009800812F0F90DF91CF911F910C94F10076
:10029000809105018F758093050184E091E00E94B3
:1002A00098000F90DF91CF911F910C9488000F90D0
:1002B000DF91CF911F910895FC018081823091F0F0
:1002C00018F4813031F00895833031F0843039F002
:1002D000089573E0E2E008C077E0E5E005C076E06D
:1002E000E0E002C074E0E1E06230D1F0643069F136
:1002F000613009F040C041E050E09A01072E01C092
:10030000220F0A94EAF720950E2E01C0440F0A949A
:10031000EAF780910501842B28232093050127C04B
:1003200021E030E0A9010E2E01C0440F0A94EAF743
:100330004095809105014823072E01C0220F0A94A1
:10034000EAF7422B4093050112C081E090E0AC0136
:1003500001C0440FEA95EAF701C0880F7A95EAF7E1
:10036000842B80959091050198239093050184E05A
:1003700091E00C9498000895FC018081823061F036
:1003800018F4813031F00895833049F0843049F019
:1003900008956093B30008956093B400089567BD15
:1003A000089568BD08951092040108951F920F9258
:1003B0000FB60F9211242F933F934F935F936F9338
:1003C0007F938F939F93AF93BF93EF93FF9380910E
:1003D000070187FF05C010928500109284001AC0A3
:1003E00020910701332727FD30958091060190E089
:1003F000281739077CF480910701992787FD90958C
:10040000FC01EE0FFF1FE80FF91FE85FFE4F808130
:1004100086FD15C0809107018F5F809307012091B1
:100420000701332727FD30958091060190E02817BA
:100430003907BCF4809107018C305CF112C08091C7
:100440000701992787FD9095FC01EE0FFF1FE80F2C
:10045000F91FE85FFE4F808160E08F730E940C04FB
:10046000D9CF8091840090918500049680349C4976
:1004700018F480E49CE905C0809184009091850087
:10048000049690938900809388008FEF80930701F2
:1004900038C0209184003091850080910701992710
:1004A00087FD9095FC01EE0FFF1FE80FF91FE85F35
:1004B000FE4F81819281820F931F909389008093D8
:1004C000880080910701992787FD9095FC01EE0F28
:1004D000FF1FE80FF91FE85FFE4F808186FF11C004
:1004E00080910701992787FD9095FC01EE0FFF1F72
:1004F000E80FF91FE85FFE4F808161E08F730E9473
:100500000C04FF91EF91BF91AF919F918F917F91DB
:100510006F915F914F913F912F910F900FBE0F9070
:100520001F9018956FEF8CE291E00E94BC0164E08F
:100530008CE291E00C945C016FEF8CE291E00E9400
:10054000BC0161E08CE291E00E945C0160ED77E02B
:1005500080E090E00E94470364E08CE291E00E941A
:100560005C0168EB7BE080E090E00E9447036FEF66
:100570008CE291E00E94BC0162E08CE291E00E947A
:100580005C0160ED77E080E090E00E94470364E06A
:100590008CE291E00E945C0168EB7BE080E090E0FF
:1005A0000C9447030C949C0242E061E08CE291E0E1
:1005B0000C94FF001F920F920FB60F9211242F93ED
:1005C0003F938F939F93AF93BF9380912F0190910F
:1005D0003001A0913101B091320130912E0123E020
:1005E000230F2D3720F40196A11DB11D05C026E86B
:1005F000230F0296A11DB11D20932E0180932F0180
:1006000090933001A0933101B09332018091330176
:1006100090913401A0913501B09136010196A11D50
:10062000B11D8093330190933401A0933501B093B1
:100630003601BF91AF919F918F913F912F910F9074
:100640000FBE0F901F9018953FB7F894809133011B
:1006500090913401A0913501B091360126B5A89B47
:1006600005C02F3F19F00196A11DB11D3FBF6627A0
:10067000782F892F9A2F620F711D811D911D42E0E5
:10068000660F771F881F991F4A95D1F70895CF925B
:10069000DF92EF92FF92CF93DF936B017C010E9478
:1006A0002403EB01C114D104E104F10489F00E9498
:1006B00052040E9424036C1B7D0B683E734090F330
:1006C00081E0C81AD108E108F108C851DC4FEACF2F
:1006D000DF91CF91FF90EF90DF90CF9008957894C5
:1006E00084B5826084BD84B5816084BD85B5826037
:1006F00085BD85B5816085BDEEE6F0E080818160D5
:100700008083E1E8F0E010828081826080838081D4
:1007100081608083E0E8F0E0808181608083E1EBAC
:10072000F0E0808184608083E0EBF0E08081816094
:100730008083EAE7F0E0808184608083808182604A
:100740008083808181608083808180688083109233
:10075000C1000895833081F028F4813099F082300F
:10076000A1F008958730A9F08830B9F08430D1F431
:10077000809180008F7D03C0809180008F7780936F
:100780008000089584B58F7702C084B58F7D84BDC5
:1007900008958091B0008F7703C08091B0008F7D65
:1007A0008093B0000895CF93DF9390E0FC01E4586C
:1007B000FF4F2491FC01E057FF4F8491882349F1BA
:1007C00090E0880F991FFC01E255FF4FA591B4916D
:1007D0008C559F4FFC01C591D4919FB7611108C002
:1007E000F8948C91209582238C93888182230AC06F
:1007F000623051F4F8948C91322F309583238C938E
:100800008881822B888304C0F8948C91822B8C93EE
:100810009FBFDF91CF9108950F931F93CF93DF93E5
:100820001F92CDB7DEB7282F30E0F901E859FF4F0E
:100830008491F901E458FF4F1491F901E057FF4FFB
:1008400004910023C9F0882321F069830E94AA0340
:100850006981E02FF0E0EE0FFF1FEC55FF4FA591EF
:10086000B4919FB7F8948C91611103C010958123C6
:1008700001C0812B8C939FBF0F90DF91CF911F916F
:100880000F91089508950E946F030E9442040E94F0
:100890009202C0E0D0E00E94D2022097E1F30E94D1
:1008A0000000F9CF0895EE0FFF1F0590F491E02DA1
:0608B0000994F894FFCF4B
:0408B600010000003D
:00000001FF
